:040000008031132810
:100008007E1480318B1E09280A2811280B1D0D2803
:100018000E28112880314A2080317E100900803155
:100028001528F301F4017E10200080318E2822006B
:100038008C018D018E01083021009000FF308C006A
:10004800FF308D00FF308E007C3023008E003B3067
:100058008D003F308C00240090018D018C01803090
:100068008E002100971325008C018D018E01FF3031
:1000780026008C00FF308D00FF308E003F302700B7
:100088008C00F0308D00FF308E0008000B117208D4
:10009800200097000130F3070030F43D003074026F
:1000A800643003197302031C5A285B2860288031C6
:1000B80082208031F301F401080021001708C039BB
:1000C80017389700B23020009700B230F2000B11B9
:1000D8008B16A730F5000030F60080319E20803165
:1000E800080080311B20803180319620803180319A
:1000F800A3208031803161208031080070087104AC
:100108000319872888288D2871088A0070080A0032
:10011800803108008031752080318B170B179328A8
:1001280080311328703021009B0080309C009A0198
:100138009D0108007608F1007508F00008001630E7
:080148002100990008000800E5
:020000040001F9
:08000000FF3FFF3FFF3FFF3F00
:04000E00E43FFF1EAE
:00000001FF
