:04000000803119280A
:100008007E1480310B1F09280A2817282100111C8B
:100018000E280F2817282000111C13281428172829
:100028008031B02080317E10090080311B28F90111
:10003800FA017E102000803121288031F52080319E
:100048002000A001A1018B170B1722000D1181318F
:100058002C2180310230F2000130F300813123215C
:10006800803120008E1F39283A285B282008210477
:10007800031D3F2840285B288230F400DE30890BBE
:100088004328F40B432820008E1B4B284C28472874
:100098008230F400DE30890B4F28F40B4F28813171
:1000A8002F21803101302000A0000030A100200362
:1000B8002104031D6028612835288E1F64286528BF
:1000C80035288230F400DE30890B6828F40B682864
:1000D80020008E1B702871286C288230F400DE30D6
:1000E800890B7428F40B742881312C21803120006D
:1000F800A001A10135288031192822008C018D0129
:100108008E01083021009000FF308C00FB308D00FC
:10011800FF308E007C3023008E003B308D003F3056
:100128008C00240090018D018C0180308E0021000C
:10013800971325008C018D018E01FF3026008C005D
:10014800FF308D00FF308E003F3027008C00F030EC
:100158008D00FF308E000800200011107808F10093
:100168007708F0008031E42080310130F907003051
:10017800FA3D00307A020A3003197902031CC528B7
:10018800C628CB2881310F218031F901FA010800F6
:1001980020009B019E3099005830980011101908D2
:1001A800F8001808F700210011143230F20001306D
:1001B800F300813123218031313020009A0008007A
:1001C80020001A1DE828E928F0281A10710899005B
:1001D800700898001A14F42871089900700898009B
:1001E800080080318120803181311B2180318131AB
:1001F800282180318031CC20803108000310220072
:100208000D1D0314031809290C2922000D150E29A8
:1002180022000D1108007508760403191429152900
:100228001A2976088A0075080A008131080070309A
:1002380021009B0080309C009A019D0108007308F2
:10024800F6007208F5000800163021009900080031
:0E02580020001A10080020001A1408000800E8
:020000040001F9
:08000000FF3FFF3FFF3FFF3F00
:04000E00E43FFF1EAE
:00000001FF
