:04000000803119280A
:100008007E1480310B1F09280A2817282100111C8B
:100018000E280F2817282000111C13281428172829
:100028008031992080317E10090080311B28F90128
:10003800FA017E102000803121288031DE208031B5
:100048002000A001A1018B170B17EB30F200003044
:10005800F30081310C21803120008E1F342835288F
:10006800572820082104031D3A283B2857288230A6
:10007800F400DE30890B3E28F40B3E2820008E1B4E
:100088004628472842288230F400DE30890B4A2867
:10009800F40B4A2881311821803101302000A0005A
:1000A8000030A100302820032104031D5C285D28AE
:1000B80030288E1F60286128302881311521803131
:1000C8002000A001A10130288031192822008C01CC
:1000D8008D018E01083021009000FF308C00FB302C
:1000E8008D00FF308E007C3023008E003B308D0069
:1000F8003F308C00240090018D018C0180308E00EF
:100108002100971325008C018D018E01FF302600F8
:100118008C00FF308D00FF308E003F3027008C00B0
:10012800F0308D00FF308E00080020001110780894
:10013800F1007708F0008031CD2080310130F907D7
:100148000030FA3D00307A020A3003197902031CA4
:10015800AE28AF28B4288031F8208031F901FA019F
:10016800080020009B019E3099005830980011101B
:100178001908F8001808F700210011141B30F200C4
:100188000130F30081310C218031313020009A0098
:10019800080020001A1DD128D228D9281A10710861
:1001A8009900700898001A14DD28710899007008E1
:1001B8009800080080316A20803181310421803123
:1001C8008131112180318031B52080310800031040
:1001D80022000D1D03140318F228F52822000D151E
:1001E800F72822000D110800750876040319FD2868
:1001F800FE28032976088A0075080A00813108005C
:10020800703021009B0080309C009A019D010800FD
:100218007308F6007208F5000800163021009900EE
:10022800080020001A10080020001A14080008000E
:020000040001F9
:08000000FF3FFF3FFF3FFF3F00
:04000E00E43FFF1EAE
:00000001FF
